{
  "contractName": "KycBlockChain",
  "abi": [
    {
      "inputs": [
        {
          "internalType": "uint256",
          "name": "",
          "type": "uint256"
        }
      ],
      "name": "Banks",
      "outputs": [
        {
          "internalType": "address",
          "name": "",
          "type": "address"
        }
      ],
      "stateMutability": "view",
      "type": "function",
      "constant": true
    },
    {
      "inputs": [
        {
          "internalType": "uint256",
          "name": "",
          "type": "uint256"
        }
      ],
      "name": "Requests",
      "outputs": [
        {
          "internalType": "address",
          "name": "",
          "type": "address"
        }
      ],
      "stateMutability": "view",
      "type": "function",
      "constant": true
    },
    {
      "inputs": [],
      "name": "bankslength",
      "outputs": [
        {
          "internalType": "uint256",
          "name": "",
          "type": "uint256"
        }
      ],
      "stateMutability": "view",
      "type": "function",
      "constant": true
    },
    {
      "inputs": [],
      "name": "isOrg",
      "outputs": [
        {
          "internalType": "bool",
          "name": "",
          "type": "bool"
        }
      ],
      "stateMutability": "view",
      "type": "function",
      "constant": true
    },
    {
      "inputs": [],
      "name": "isCus",
      "outputs": [
        {
          "internalType": "bool",
          "name": "",
          "type": "bool"
        }
      ],
      "stateMutability": "view",
      "type": "function",
      "constant": true
    },
    {
      "inputs": [
        {
          "internalType": "string",
          "name": "_name",
          "type": "string"
        },
        {
          "internalType": "string",
          "name": "_hash",
          "type": "string"
        },
        {
          "internalType": "address",
          "name": "_bank",
          "type": "address"
        }
      ],
      "name": "newCustomer",
      "outputs": [
        {
          "internalType": "bool",
          "name": "",
          "type": "bool"
        }
      ],
      "stateMutability": "payable",
      "type": "function",
      "payable": true
    },
    {
      "inputs": [
        {
          "internalType": "string",
          "name": "_name",
          "type": "string"
        }
      ],
      "name": "newOrganisation",
      "outputs": [
        {
          "internalType": "bool",
          "name": "",
          "type": "bool"
        }
      ],
      "stateMutability": "payable",
      "type": "function",
      "payable": true
    },
    {
      "inputs": [
        {
          "internalType": "address",
          "name": "_address",
          "type": "address"
        }
      ],
      "name": "viewCustomerData",
      "outputs": [
        {
          "internalType": "string",
          "name": "",
          "type": "string"
        }
      ],
      "stateMutability": "view",
      "type": "function",
      "constant": true
    },
    {
      "inputs": [
        {
          "internalType": "string",
          "name": "_name",
          "type": "string"
        },
        {
          "internalType": "string",
          "name": "_hash",
          "type": "string"
        },
        {
          "internalType": "address",
          "name": "_bank",
          "type": "address"
        }
      ],
      "name": "modifyCustomerData",
      "outputs": [
        {
          "internalType": "bool",
          "name": "",
          "type": "bool"
        }
      ],
      "stateMutability": "payable",
      "type": "function",
      "payable": true
    },
    {
      "inputs": [],
      "name": "checkStatus",
      "outputs": [
        {
          "internalType": "enum KYC_Functions.Status",
          "name": "",
          "type": "uint8"
        }
      ],
      "stateMutability": "view",
      "type": "function",
      "constant": true
    },
    {
      "inputs": [
        {
          "internalType": "address",
          "name": "_custaddress",
          "type": "address"
        }
      ],
      "name": "changeStatusToAccepted",
      "outputs": [],
      "stateMutability": "payable",
      "type": "function",
      "payable": true
    },
    {
      "inputs": [
        {
          "internalType": "address",
          "name": "_custaddress",
          "type": "address"
        }
      ],
      "name": "changeStatusToRejected",
      "outputs": [],
      "stateMutability": "payable",
      "type": "function",
      "payable": true
    },
    {
      "inputs": [],
      "name": "viewRequests",
      "outputs": [
        {
          "internalType": "address[]",
          "name": "",
          "type": "address[]"
        }
      ],
      "stateMutability": "view",
      "type": "function",
      "constant": true
    },
    {
      "inputs": [
        {
          "internalType": "address",
          "name": "_address",
          "type": "address"
        }
      ],
      "name": "viewName",
      "outputs": [
        {
          "internalType": "string",
          "name": "",
          "type": "string"
        }
      ],
      "stateMutability": "view",
      "type": "function",
      "constant": true
    }
  ],
  "bytecode": "0x6080604052600060025534801561001557600080fd5b50612276806100256000396000f3fe6080604052600436106100dc5760003560e01c806360f949d91161007f578063aeb61c7c11610059578063aeb61c7c146102c0578063b8d7ec2d146102fd578063d32752281461032d578063da724c0d14610358576100dc565b806360f949d91461023c5780638a53fd1114610267578063972c738714610283576100dc565b806331d823ac116100bb57806331d823ac1461017e5780633b7104f2146101a957806340ac9993146101d4578063521e686d14610211576100dc565b8062699429146100e15780630320403c1461011e57806305c5bf4c1461014e575b600080fd5b3480156100ed57600080fd5b5061010860048036038101906101039190611566565b610374565b6040516101159190611623565b60405180910390f35b6101386004803603810190610133919061177a565b610522565b6040516101459190611820565b60405180910390f35b6101686004803603810190610163919061183b565b610697565b6040516101759190611820565b60405180910390f35b34801561018a57600080fd5b5061019361087b565b6040516101a09190611820565b60405180910390f35b3480156101b557600080fd5b506101be6108e3565b6040516101cb91906118fb565b60405180910390f35b3480156101e057600080fd5b506101fb60048036038101906101f6919061194c565b610a26565b6040516102089190611988565b60405180910390f35b34801561021d57600080fd5b50610226610a65565b6040516102339190611a61565b60405180910390f35b34801561024857600080fd5b50610251610b7a565b60405161025e9190611a92565b60405180910390f35b610281600480360381019061027c9190611566565b610b80565b005b34801561028f57600080fd5b506102aa60048036038101906102a59190611566565b610d48565b6040516102b79190611623565b60405180910390f35b3480156102cc57600080fd5b506102e760048036038101906102e2919061194c565b610e63565b6040516102f49190611988565b60405180910390f35b6103176004803603810190610312919061177a565b610ea2565b6040516103249190611820565b60405180910390f35b34801561033957600080fd5b50610342611176565b60405161034f9190611820565b60405180910390f35b610372600480360381019061036d9190611566565b6111de565b005b606061037e611176565b6103bd576040517f08c379a00000000000000000000000000000000000000000000000000000000081526004016103b490611af9565b60405180910390fd5b600360008373ffffffffffffffffffffffffffffffffffffffff1673ffffffffffffffffffffffffffffffffffffffff16815260200190815260200160002060020160149054906101000a900460ff16156104e457600360008373ffffffffffffffffffffffffffffffffffffffff1673ffffffffffffffffffffffffffffffffffffffff168152602001908152602001600020600101805461045f90611b48565b80601f016020809104026020016040519081016040528092919081815260200182805461048b90611b48565b80156104d85780601f106104ad576101008083540402835291602001916104d8565b820191906000526020600020905b8154815290600101906020018083116104bb57829003601f168201915b5050505050905061051d565b6040518060400160405280602081526020017f4e6f207375636820437573746f6d657220696e2074686520646174616261736581525090505b919050565b600061052c61087b565b61056b576040517f08c379a000000000000000000000000000000000000000000000000000000000815260040161056290611bc5565b60405180910390fd5b83600360003373ffffffffffffffffffffffffffffffffffffffff1673ffffffffffffffffffffffffffffffffffffffff16815260200190815260200160002060000190816105ba9190611d91565b5082600360003373ffffffffffffffffffffffffffffffffffffffff1673ffffffffffffffffffffffffffffffffffffffff168152602001908152602001600020600101908161060a9190611d91565b5081600360003373ffffffffffffffffffffffffffffffffffffffff1673ffffffffffffffffffffffffffffffffffffffff16815260200190815260200160002060020160006101000a81548173ffffffffffffffffffffffffffffffffffffffff021916908373ffffffffffffffffffffffffffffffffffffffff160217905550600190509392505050565b60006106a1611176565b156106e1576040517f08c379a00000000000000000000000000000000000000000000000000000000081526004016106d890611ed5565b60405180910390fd5b81600460003373ffffffffffffffffffffffffffffffffffffffff1673ffffffffffffffffffffffffffffffffffffffff16815260200190815260200160002060000190816107309190611d91565b506001600460003373ffffffffffffffffffffffffffffffffffffffff1673ffffffffffffffffffffffffffffffffffffffff16815260200190815260200160002060010160006101000a81548160ff0219169083151502179055506001600460003373ffffffffffffffffffffffffffffffffffffffff1673ffffffffffffffffffffffffffffffffffffffff16815260200190815260200160002060010160016101000a81548160ff021916908360018111156107f2576107f1611884565b5b02179055506000339080600181540180825580915050600190039060005260206000200160009091909190916101000a81548173ffffffffffffffffffffffffffffffffffffffff021916908373ffffffffffffffffffffffffffffffffffffffff1602179055506002600081548092919061086d90611f24565b919050555060019050919050565b6000600360003373ffffffffffffffffffffffffffffffffffffffff1673ffffffffffffffffffffffffffffffffffffffff16815260200190815260200160002060020160149054906101000a900460ff16156108db57600190506108e0565b600090505b90565b60006108ed61087b565b61092c576040517f08c379a000000000000000000000000000000000000000000000000000000000815260040161092390611bc5565b60405180910390fd5b6000600360003373ffffffffffffffffffffffffffffffffffffffff1673ffffffffffffffffffffffffffffffffffffffff16815260200190815260200160002060020160009054906101000a900473ffffffffffffffffffffffffffffffffffffffff169050600460008273ffffffffffffffffffffffffffffffffffffffff1673ffffffffffffffffffffffffffffffffffffffff16815260200190815260200160002060020160003373ffffffffffffffffffffffffffffffffffffffff1673ffffffffffffffffffffffffffffffffffffffff16815260200190815260200160002060009054906101000a900460ff1691505090565b60018181548110610a3657600080fd5b906000526020600020016000915054906101000a900473ffffffffffffffffffffffffffffffffffffffff1681565b6060610a6f611176565b610aae576040517f08c379a0000000000000000000000000000000000000000000000000000000008152600401610aa590611fb8565b60405180910390fd5b600460003373ffffffffffffffffffffffffffffffffffffffff1673ffffffffffffffffffffffffffffffffffffffff168152602001908152602001600020600301805480602002602001604051908101604052809291908181526020018280548015610b7057602002820191906000526020600020905b8160009054906101000a900473ffffffffffffffffffffffffffffffffffffffff1673ffffffffffffffffffffffffffffffffffffffff1681526020019060010190808311610b26575b5050505050905090565b60025481565b610b88611176565b610bc7576040517f08c379a0000000000000000000000000000000000000000000000000000000008152600401610bbe9061204a565b60405180910390fd5b6000600360008373ffffffffffffffffffffffffffffffffffffffff1673ffffffffffffffffffffffffffffffffffffffff16815260200190815260200160002060020160009054906101000a900473ffffffffffffffffffffffffffffffffffffffff1690503373ffffffffffffffffffffffffffffffffffffffff168173ffffffffffffffffffffffffffffffffffffffff1614610c9c576040517f08c379a0000000000000000000000000000000000000000000000000000000008152600401610c93906120dc565b60405180910390fd5b6001600460003373ffffffffffffffffffffffffffffffffffffffff1673ffffffffffffffffffffffffffffffffffffffff16815260200190815260200160002060020160008473ffffffffffffffffffffffffffffffffffffffff1673ffffffffffffffffffffffffffffffffffffffff16815260200190815260200160002060006101000a81548160ff02191690836002811115610d3f57610d3e611884565b5b02179055505050565b6060610d52611176565b610d91576040517f08c379a0000000000000000000000000000000000000000000000000000000008152600401610d8890612148565b60405180910390fd5b600360008373ffffffffffffffffffffffffffffffffffffffff1673ffffffffffffffffffffffffffffffffffffffff1681526020019081526020016000206000018054610dde90611b48565b80601f0160208091040260200160405190810160405280929190818152602001828054610e0a90611b48565b8015610e575780601f10610e2c57610100808354040283529160200191610e57565b820191906000526020600020905b815481529060010190602001808311610e3a57829003601f168201915b50505050509050919050565b60008181548110610e7357600080fd5b906000526020600020016000915054906101000a900473ffffffffffffffffffffffffffffffffffffffff1681565b6000610eac61087b565b15610eec576040517f08c379a0000000000000000000000000000000000000000000000000000000008152600401610ee3906121b4565b60405180910390fd5b600460008373ffffffffffffffffffffffffffffffffffffffff1673ffffffffffffffffffffffffffffffffffffffff16815260200190815260200160002060010160009054906101000a900460ff16610f7b576040517f08c379a0000000000000000000000000000000000000000000000000000000008152600401610f7290612220565b60405180910390fd5b83600360003373ffffffffffffffffffffffffffffffffffffffff1673ffffffffffffffffffffffffffffffffffffffff1681526020019081526020016000206000019081610fca9190611d91565b5082600360003373ffffffffffffffffffffffffffffffffffffffff1673ffffffffffffffffffffffffffffffffffffffff168152602001908152602001600020600101908161101a9190611d91565b5081600360003373ffffffffffffffffffffffffffffffffffffffff1673ffffffffffffffffffffffffffffffffffffffff16815260200190815260200160002060020160006101000a81548173ffffffffffffffffffffffffffffffffffffffff021916908373ffffffffffffffffffffffffffffffffffffffff1602179055506001600360003373ffffffffffffffffffffffffffffffffffffffff1673ffffffffffffffffffffffffffffffffffffffff16815260200190815260200160002060020160146101000a81548160ff0219169083151502179055506000600360003373ffffffffffffffffffffffffffffffffffffffff1673ffffffffffffffffffffffffffffffffffffffff16815260200190815260200160002060020160156101000a81548160ff0219169083600181111561115d5761115c611884565b5b021790555061116b826113a6565b600190509392505050565b6000600460003373ffffffffffffffffffffffffffffffffffffffff1673ffffffffffffffffffffffffffffffffffffffff16815260200190815260200160002060010160009054906101000a900460ff16156111d657600190506111db565b600090505b90565b6111e6611176565b611225576040517f08c379a000000000000000000000000000000000000000000000000000000000815260040161121c9061204a565b60405180910390fd5b6000600360008373ffffffffffffffffffffffffffffffffffffffff1673ffffffffffffffffffffffffffffffffffffffff16815260200190815260200160002060020160009054906101000a900473ffffffffffffffffffffffffffffffffffffffff1690503373ffffffffffffffffffffffffffffffffffffffff168173ffffffffffffffffffffffffffffffffffffffff16146112fa576040517f08c379a00000000000000000000000000000000000000000000000000000000081526004016112f1906120dc565b60405180910390fd5b6000600460003373ffffffffffffffffffffffffffffffffffffffff1673ffffffffffffffffffffffffffffffffffffffff16815260200190815260200160002060020160008473ffffffffffffffffffffffffffffffffffffffff1673ffffffffffffffffffffffffffffffffffffffff16815260200190815260200160002060006101000a81548160ff0219169083600281111561139d5761139c611884565b5b02179055505050565b6002600460008373ffffffffffffffffffffffffffffffffffffffff1673ffffffffffffffffffffffffffffffffffffffff16815260200190815260200160002060020160003373ffffffffffffffffffffffffffffffffffffffff1673ffffffffffffffffffffffffffffffffffffffff16815260200190815260200160002060006101000a81548160ff0219169083600281111561144957611448611884565b5b0217905550600460008273ffffffffffffffffffffffffffffffffffffffff1673ffffffffffffffffffffffffffffffffffffffff168152602001908152602001600020600301339080600181540180825580915050600190039060005260206000200160009091909190916101000a81548173ffffffffffffffffffffffffffffffffffffffff021916908373ffffffffffffffffffffffffffffffffffffffff16021790555050565b6000604051905090565b600080fd5b600080fd5b600073ffffffffffffffffffffffffffffffffffffffff82169050919050565b600061153382611508565b9050919050565b61154381611528565b811461154e57600080fd5b50565b6000813590506115608161153a565b92915050565b60006020828403121561157c5761157b6114fe565b5b600061158a84828501611551565b91505092915050565b600081519050919050565b600082825260208201905092915050565b60005b838110156115cd5780820151818401526020810190506115b2565b60008484015250505050565b6000601f19601f8301169050919050565b60006115f582611593565b6115ff818561159e565b935061160f8185602086016115af565b611618816115d9565b840191505092915050565b6000602082019050818103600083015261163d81846115ea565b905092915050565b600080fd5b600080fd5b7f4e487b7100000000000000000000000000000000000000000000000000000000600052604160045260246000fd5b611687826115d9565b810181811067ffffffffffffffff821117156116a6576116a561164f565b5b80604052505050565b60006116b96114f4565b90506116c5828261167e565b919050565b600067ffffffffffffffff8211156116e5576116e461164f565b5b6116ee826115d9565b9050602081019050919050565b82818337600083830152505050565b600061171d611718846116ca565b6116af565b9050828152602081018484840111156117395761173861164a565b5b6117448482856116fb565b509392505050565b600082601f83011261176157611760611645565b5b813561177184826020860161170a565b91505092915050565b600080600060608486031215611793576117926114fe565b5b600084013567ffffffffffffffff8111156117b1576117b0611503565b5b6117bd8682870161174c565b935050602084013567ffffffffffffffff8111156117de576117dd611503565b5b6117ea8682870161174c565b92505060406117fb86828701611551565b9150509250925092565b60008115159050919050565b61181a81611805565b82525050565b60006020820190506118356000830184611811565b92915050565b600060208284031215611851576118506114fe565b5b600082013567ffffffffffffffff81111561186f5761186e611503565b5b61187b8482850161174c565b91505092915050565b7f4e487b7100000000000000000000000000000000000000000000000000000000600052602160045260246000fd5b600381106118c4576118c3611884565b5b50565b60008190506118d5826118b3565b919050565b60006118e5826118c7565b9050919050565b6118f5816118da565b82525050565b600060208201905061191060008301846118ec565b92915050565b6000819050919050565b61192981611916565b811461193457600080fd5b50565b60008135905061194681611920565b92915050565b600060208284031215611962576119616114fe565b5b600061197084828501611937565b91505092915050565b61198281611528565b82525050565b600060208201905061199d6000830184611979565b92915050565b600081519050919050565b600082825260208201905092915050565b6000819050602082019050919050565b6119d881611528565b82525050565b60006119ea83836119cf565b60208301905092915050565b6000602082019050919050565b6000611a0e826119a3565b611a1881856119ae565b9350611a23836119bf565b8060005b83811015611a54578151611a3b88826119de565b9750611a46836119f6565b925050600181019050611a27565b5085935050505092915050565b60006020820190508181036000830152611a7b8184611a03565b905092915050565b611a8c81611916565b82525050565b6000602082019050611aa76000830184611a83565b92915050565b7f4163636573732044656e69656400000000000000000000000000000000000000600082015250565b6000611ae3600d8361159e565b9150611aee82611aad565b602082019050919050565b60006020820190508181036000830152611b1281611ad6565b9050919050565b7f4e487b7100000000000000000000000000000000000000000000000000000000600052602260045260246000fd5b60006002820490506001821680611b6057607f821691505b602082108103611b7357611b72611b19565b5b50919050565b7f596f7520617265206e6f74206120637573746f6d657200000000000000000000600082015250565b6000611baf60168361159e565b9150611bba82611b79565b602082019050919050565b60006020820190508181036000830152611bde81611ba2565b9050919050565b60008190508160005260206000209050919050565b60006020601f8301049050919050565b600082821b905092915050565b600060088302611c477fffffffffffffffffffffffffffffffffffffffffffffffffffffffffffffffff82611c0a565b611c518683611c0a565b95508019841693508086168417925050509392505050565b6000819050919050565b6000611c8e611c89611c8484611916565b611c69565b611916565b9050919050565b6000819050919050565b611ca883611c73565b611cbc611cb482611c95565b848454611c17565b825550505050565b600090565b611cd1611cc4565b611cdc818484611c9f565b505050565b5b81811015611d0057611cf5600082611cc9565b600181019050611ce2565b5050565b601f821115611d4557611d1681611be5565b611d1f84611bfa565b81016020851015611d2e578190505b611d42611d3a85611bfa565b830182611ce1565b50505b505050565b600082821c905092915050565b6000611d6860001984600802611d4a565b1980831691505092915050565b6000611d818383611d57565b9150826002028217905092915050565b611d9a82611593565b67ffffffffffffffff811115611db357611db261164f565b5b611dbd8254611b48565b611dc8828285611d04565b600060209050601f831160018114611dfb5760008415611de9578287015190505b611df38582611d75565b865550611e5b565b601f198416611e0986611be5565b60005b82811015611e3157848901518255600182019150602085019450602081019050611e0c565b86831015611e4e5784890151611e4a601f891682611d57565b8355505b6001600288020188555050505b505050505050565b7f4f7267616e69736174696f6e20616c726561647920657869737473207769746860008201527f207468652073616d652061646472657373210000000000000000000000000000602082015250565b6000611ebf60328361159e565b9150611eca82611e63565b604082019050919050565b60006020820190508181036000830152611eee81611eb2565b9050919050565b7f4e487b7100000000000000000000000000000000000000000000000000000000600052601160045260246000fd5b6000611f2f82611916565b91507fffffffffffffffffffffffffffffffffffffffffffffffffffffffffffffffff8203611f6157611f60611ef5565b5b600182019050919050565b7f596f7520617265206e6f74205065726d69747465640000000000000000000000600082015250565b6000611fa260158361159e565b9150611fad82611f6c565b602082019050919050565b60006020820190508181036000830152611fd181611f95565b9050919050565b7f596f7520617265206e6f74207065726d697474656420746f207573652074686960008201527f732066756e6374696f6e00000000000000000000000000000000000000000000602082015250565b6000612034602a8361159e565b915061203f82611fd8565b604082019050919050565b6000602082019050818103600083015261206381612027565b9050919050565b7f596f7520646f6e7420686176652061636365737320746f20766572696679207460008201527f6869732064617461000000000000000000000000000000000000000000000000602082015250565b60006120c660288361159e565b91506120d18261206a565b604082019050919050565b600060208201905081810360008301526120f5816120b9565b9050919050565b7f4e6f7420616e204f7267616e69736174696f6e00000000000000000000000000600082015250565b600061213260138361159e565b915061213d826120fc565b602082019050919050565b6000602082019050818103600083015261216181612125565b9050919050565b7f437573746f6d657220416c726561647920457869737473210000000000000000600082015250565b600061219e60188361159e565b91506121a982612168565b602082019050919050565b600060208201905081810360008301526121cd81612191565b9050919050565b7f4e6f20737563682042616e6b2100000000000000000000000000000000000000600082015250565b600061220a600d8361159e565b9150612215826121d4565b602082019050919050565b60006020820190508181036000830152612239816121fd565b905091905056fea26469706673582212200ef40eb12833b9bad55ac983dc4f25819afa5bb996935ed9c3fb5b991d06aa4c64736f6c63430008140033",
  "immutableReferences": {},
  "source": "// SPDX-License-Identifier: MIT\r\npragma solidity ^0.8.20;\r\n\r\ninterface KYC_Functions{\r\n    enum Status {Accepted, Rejected, Pending}\r\n    // Checks if the current address is an Organisation(Bank) or not \r\n    function isOrg() external view returns(bool);\r\n    // Checks if the current address is an Customer or not \r\n    function isCus() external view returns(bool);\r\n    // A function to register as a new customer to get your KYC checked by a bank\r\n    function newCustomer(string calldata _name, string calldata _hash, address _bank) external payable returns(bool);\r\n    // A function that allows you to be a bank and audit KYC data of customers\r\n    function newOrganisation(string calldata _name) external payable returns(bool);\r\n    // A function which is only visible to the bankers so they can verify the data\r\n    function viewCustomerData(address _address) external view returns(string memory);\r\n    // Customers also can change the their data if the KYC request gets rejected\r\n    function modifyCustomerData(string calldata _name,string calldata _hash, address _bank) \r\n    external payable returns(bool);\r\n    // Checks the status of a customers KYC Request (Approved or Rejected or Pending)\r\n    function checkStatus() external view returns(Status);\r\n    // Function that can change the status of a request (Only for banks)\r\n    function changeStatusToAccepted(address _custaddress) external payable;\r\n    // Function that can change the status of a request (Only for banks)\r\n    function changeStatusToRejected(address _custaddress) external payable;\r\n    // A function that enables the bank to lookup at all the KYC requests pointed at it\r\n    function viewRequests() external view returns(address[] memory);\r\n    // A function that returns the name of a customer\r\n    function viewName(address _address) external view returns(string memory);\r\n\r\n}\r\n\r\ncontract KycBlockChain is KYC_Functions{\r\n\r\n    address[] public Banks;\r\n    address[] public Requests;\r\n    uint public bankslength=0;\r\n\r\n    enum Entity { Customer, Organisation } \r\n    \r\n\r\n    struct Customer{\r\n        string c_name;\r\n        string data_hash;\r\n        address bank_address;\r\n        bool exists;\r\n        Entity entity;\r\n    }\r\n\r\n    struct Organisation{\r\n        string b_name;\r\n        bool exists;\r\n        Entity entity;\r\n        mapping(address => Status) requests;\r\n        address[] allrequests;\r\n    }\r\n\r\n    mapping(address => Customer) allCustomers;\r\n    mapping(address => Organisation) allOrganisations;\r\n\r\n    function isOrg() public view returns(bool){\r\n        if(allOrganisations[msg.sender].exists){\r\n            return true;\r\n        }\r\n        return false;\r\n    }\r\n\r\n    function isCus() public view returns(bool){\r\n        if(allCustomers[msg.sender].exists){\r\n            return true;\r\n        }\r\n        return false;\r\n    } \r\n\r\n    function newCustomer(string memory _name, string memory _hash, address _bank) public payable returns(bool){\r\n        require(!isCus(),\"Customer Already Exists!\");\r\n        require(allOrganisations[_bank].exists,\"No such Bank!\");\r\n        allCustomers[msg.sender].c_name = _name;\r\n        allCustomers[msg.sender].data_hash = _hash;\r\n        allCustomers[msg.sender].bank_address = _bank;\r\n        // allCustomers[msg.sender].access[msg.sender] = true;\r\n        allCustomers[msg.sender].exists = true;\r\n        allCustomers[msg.sender].entity = Entity.Customer;\r\n        notifyBank(_bank);\r\n        return true;\r\n\r\n    }\r\n\r\n    function newOrganisation(string memory _name) public payable returns(bool){\r\n        require(!isOrg(),\"Organisation already exists with the same address!\");\r\n        allOrganisations[msg.sender].b_name = _name;\r\n        allOrganisations[msg.sender].exists = true;\r\n        allOrganisations[msg.sender].entity = Entity.Organisation;\r\n        Banks.push(msg.sender);\r\n        bankslength++;\r\n        return true;\r\n    }\r\n\r\n    function viewCustomerData(address _address) public view returns(string memory){\r\n        require(isOrg(),\"Access Denied\");\r\n        if(allCustomers[_address].exists){\r\n            return allCustomers[_address].data_hash;\r\n        }\r\n        return \"No such Customer in the database\";\r\n    }\r\n\r\n    function modifyCustomerData(string memory _name,string memory _hash, address _bank) public payable returns(bool){\r\n        require(isCus(),\"You are not a customer\");\r\n        allCustomers[msg.sender].c_name = _name;\r\n        allCustomers[msg.sender].data_hash = _hash;\r\n        allCustomers[msg.sender].bank_address = _bank;\r\n        return true;\r\n    }\r\n\r\n    function notifyBank(address _bankaddress) internal {\r\n        allOrganisations[_bankaddress].requests[msg.sender] = Status.Pending;\r\n        allOrganisations[_bankaddress].allrequests.push(msg.sender);\r\n    }\r\n\r\n    function checkStatus() public view returns(Status) {\r\n        require(isCus(),\"You are not a customer\");\r\n        address _presbank = allCustomers[msg.sender].bank_address;\r\n        return allOrganisations[_presbank].requests[msg.sender];\r\n    }\r\n\r\n    function changeStatusToAccepted(address _custaddress) public payable{\r\n        require(isOrg(),\"You are not permitted to use this function\");\r\n        address _bank = allCustomers[_custaddress].bank_address;\r\n        require(_bank == msg.sender,\"You dont have access to verify this data\");\r\n        allOrganisations[msg.sender].requests[_custaddress] = Status.Accepted;\r\n    }\r\n\r\n    function changeStatusToRejected(address _custaddress) public payable{\r\n        require(isOrg(),\"You are not permitted to use this function\");\r\n        address _bank = allCustomers[_custaddress].bank_address;\r\n        require(_bank == msg.sender,\"You dont have access to verify this data\");\r\n        allOrganisations[msg.sender].requests[_custaddress] = Status.Rejected;\r\n    }\r\n\r\n    function viewRequests() public view returns(address[] memory){\r\n        require(isOrg(),\"You are not Permitted\");\r\n        return allOrganisations[msg.sender].allrequests;\r\n    }\r\n\r\n    function viewName(address _address) public view returns(string memory){\r\n        require(isOrg(),\"Not an Organisation\");\r\n        return allCustomers[_address].c_name;\r\n    } \r\n\r\n}",
  "sourcePath": "C:\\Users\\HP\\OneDrive\\Desktop\\KYC-blockchainn\\contracts\\KycBlockChain.sol",
  "compiler": {
    "name": "solc",
    "version": "0.8.20+commit.a1b79de6.Emscripten.clang"
  },
  "schemaVersion": "3.4.16",
  "updatedAt": "2024-06-14T12:15:24.318Z",
  "networkType": "ethereum",
  "devdoc": {
    "kind": "dev",
    "methods": {},
    "version": 1
  },
  "userdoc": {
    "kind": "user",
    "methods": {},
    "version": 1
  }
}