{
  "contractName": "KycNFT",
  "abi": [
    {
      "inputs": [],
      "stateMutability": "nonpayable",
      "type": "constructor"
    },
    {
      "inputs": [
        {
          "internalType": "address",
          "name": "sender",
          "type": "address"
        },
        {
          "internalType": "uint256",
          "name": "tokenId",
          "type": "uint256"
        },
        {
          "internalType": "address",
          "name": "owner",
          "type": "address"
        }
      ],
      "name": "ERC721IncorrectOwner",
      "type": "error"
    },
    {
      "inputs": [
        {
          "internalType": "address",
          "name": "operator",
          "type": "address"
        },
        {
          "internalType": "uint256",
          "name": "tokenId",
          "type": "uint256"
        }
      ],
      "name": "ERC721InsufficientApproval",
      "type": "error"
    },
    {
      "inputs": [
        {
          "internalType": "address",
          "name": "approver",
          "type": "address"
        }
      ],
      "name": "ERC721InvalidApprover",
      "type": "error"
    },
    {
      "inputs": [
        {
          "internalType": "address",
          "name": "operator",
          "type": "address"
        }
      ],
      "name": "ERC721InvalidOperator",
      "type": "error"
    },
    {
      "inputs": [
        {
          "internalType": "address",
          "name": "owner",
          "type": "address"
        }
      ],
      "name": "ERC721InvalidOwner",
      "type": "error"
    },
    {
      "inputs": [
        {
          "internalType": "address",
          "name": "receiver",
          "type": "address"
        }
      ],
      "name": "ERC721InvalidReceiver",
      "type": "error"
    },
    {
      "inputs": [
        {
          "internalType": "address",
          "name": "sender",
          "type": "address"
        }
      ],
      "name": "ERC721InvalidSender",
      "type": "error"
    },
    {
      "inputs": [
        {
          "internalType": "uint256",
          "name": "tokenId",
          "type": "uint256"
        }
      ],
      "name": "ERC721NonexistentToken",
      "type": "error"
    },
    {
      "inputs": [
        {
          "internalType": "address",
          "name": "owner",
          "type": "address"
        }
      ],
      "name": "OwnableInvalidOwner",
      "type": "error"
    },
    {
      "inputs": [
        {
          "internalType": "address",
          "name": "account",
          "type": "address"
        }
      ],
      "name": "OwnableUnauthorizedAccount",
      "type": "error"
    },
    {
      "anonymous": false,
      "inputs": [
        {
          "indexed": true,
          "internalType": "address",
          "name": "owner",
          "type": "address"
        },
        {
          "indexed": true,
          "internalType": "address",
          "name": "approved",
          "type": "address"
        },
        {
          "indexed": true,
          "internalType": "uint256",
          "name": "tokenId",
          "type": "uint256"
        }
      ],
      "name": "Approval",
      "type": "event"
    },
    {
      "anonymous": false,
      "inputs": [
        {
          "indexed": true,
          "internalType": "address",
          "name": "owner",
          "type": "address"
        },
        {
          "indexed": true,
          "internalType": "address",
          "name": "operator",
          "type": "address"
        },
        {
          "indexed": false,
          "internalType": "bool",
          "name": "approved",
          "type": "bool"
        }
      ],
      "name": "ApprovalForAll",
      "type": "event"
    },
    {
      "anonymous": false,
      "inputs": [
        {
          "indexed": false,
          "internalType": "uint256",
          "name": "_fromTokenId",
          "type": "uint256"
        },
        {
          "indexed": false,
          "internalType": "uint256",
          "name": "_toTokenId",
          "type": "uint256"
        }
      ],
      "name": "BatchMetadataUpdate",
      "type": "event"
    },
    {
      "anonymous": false,
      "inputs": [
        {
          "indexed": false,
          "internalType": "uint256",
          "name": "_tokenId",
          "type": "uint256"
        }
      ],
      "name": "MetadataUpdate",
      "type": "event"
    },
    {
      "anonymous": false,
      "inputs": [
        {
          "indexed": true,
          "internalType": "address",
          "name": "previousOwner",
          "type": "address"
        },
        {
          "indexed": true,
          "internalType": "address",
          "name": "newOwner",
          "type": "address"
        }
      ],
      "name": "OwnershipTransferred",
      "type": "event"
    },
    {
      "anonymous": false,
      "inputs": [
        {
          "indexed": true,
          "internalType": "address",
          "name": "from",
          "type": "address"
        },
        {
          "indexed": true,
          "internalType": "address",
          "name": "to",
          "type": "address"
        },
        {
          "indexed": true,
          "internalType": "uint256",
          "name": "tokenId",
          "type": "uint256"
        }
      ],
      "name": "Transfer",
      "type": "event"
    },
    {
      "inputs": [
        {
          "internalType": "address",
          "name": "to",
          "type": "address"
        },
        {
          "internalType": "uint256",
          "name": "tokenId",
          "type": "uint256"
        }
      ],
      "name": "approve",
      "outputs": [],
      "stateMutability": "nonpayable",
      "type": "function"
    },
    {
      "inputs": [
        {
          "internalType": "address",
          "name": "owner",
          "type": "address"
        }
      ],
      "name": "balanceOf",
      "outputs": [
        {
          "internalType": "uint256",
          "name": "",
          "type": "uint256"
        }
      ],
      "stateMutability": "view",
      "type": "function",
      "constant": true
    },
    {
      "inputs": [
        {
          "internalType": "uint256",
          "name": "tokenId",
          "type": "uint256"
        }
      ],
      "name": "getApproved",
      "outputs": [
        {
          "internalType": "address",
          "name": "",
          "type": "address"
        }
      ],
      "stateMutability": "view",
      "type": "function",
      "constant": true
    },
    {
      "inputs": [
        {
          "internalType": "address",
          "name": "owner",
          "type": "address"
        },
        {
          "internalType": "address",
          "name": "operator",
          "type": "address"
        }
      ],
      "name": "isApprovedForAll",
      "outputs": [
        {
          "internalType": "bool",
          "name": "",
          "type": "bool"
        }
      ],
      "stateMutability": "view",
      "type": "function",
      "constant": true
    },
    {
      "inputs": [],
      "name": "name",
      "outputs": [
        {
          "internalType": "string",
          "name": "",
          "type": "string"
        }
      ],
      "stateMutability": "view",
      "type": "function",
      "constant": true
    },
    {
      "inputs": [],
      "name": "owner",
      "outputs": [
        {
          "internalType": "address",
          "name": "",
          "type": "address"
        }
      ],
      "stateMutability": "view",
      "type": "function",
      "constant": true
    },
    {
      "inputs": [
        {
          "internalType": "uint256",
          "name": "tokenId",
          "type": "uint256"
        }
      ],
      "name": "ownerOf",
      "outputs": [
        {
          "internalType": "address",
          "name": "",
          "type": "address"
        }
      ],
      "stateMutability": "view",
      "type": "function",
      "constant": true
    },
    {
      "inputs": [],
      "name": "renounceOwnership",
      "outputs": [],
      "stateMutability": "nonpayable",
      "type": "function"
    },
    {
      "inputs": [
        {
          "internalType": "address",
          "name": "from",
          "type": "address"
        },
        {
          "internalType": "address",
          "name": "to",
          "type": "address"
        },
        {
          "internalType": "uint256",
          "name": "tokenId",
          "type": "uint256"
        }
      ],
      "name": "safeTransferFrom",
      "outputs": [],
      "stateMutability": "nonpayable",
      "type": "function"
    },
    {
      "inputs": [
        {
          "internalType": "address",
          "name": "from",
          "type": "address"
        },
        {
          "internalType": "address",
          "name": "to",
          "type": "address"
        },
        {
          "internalType": "uint256",
          "name": "tokenId",
          "type": "uint256"
        },
        {
          "internalType": "bytes",
          "name": "data",
          "type": "bytes"
        }
      ],
      "name": "safeTransferFrom",
      "outputs": [],
      "stateMutability": "nonpayable",
      "type": "function"
    },
    {
      "inputs": [
        {
          "internalType": "address",
          "name": "operator",
          "type": "address"
        },
        {
          "internalType": "bool",
          "name": "approved",
          "type": "bool"
        }
      ],
      "name": "setApprovalForAll",
      "outputs": [],
      "stateMutability": "nonpayable",
      "type": "function"
    },
    {
      "inputs": [
        {
          "internalType": "bytes4",
          "name": "interfaceId",
          "type": "bytes4"
        }
      ],
      "name": "supportsInterface",
      "outputs": [
        {
          "internalType": "bool",
          "name": "",
          "type": "bool"
        }
      ],
      "stateMutability": "view",
      "type": "function",
      "constant": true
    },
    {
      "inputs": [],
      "name": "symbol",
      "outputs": [
        {
          "internalType": "string",
          "name": "",
          "type": "string"
        }
      ],
      "stateMutability": "view",
      "type": "function",
      "constant": true
    },
    {
      "inputs": [
        {
          "internalType": "uint256",
          "name": "tokenId",
          "type": "uint256"
        }
      ],
      "name": "tokenURI",
      "outputs": [
        {
          "internalType": "string",
          "name": "",
          "type": "string"
        }
      ],
      "stateMutability": "view",
      "type": "function",
      "constant": true
    },
    {
      "inputs": [
        {
          "internalType": "address",
          "name": "from",
          "type": "address"
        },
        {
          "internalType": "address",
          "name": "to",
          "type": "address"
        },
        {
          "internalType": "uint256",
          "name": "tokenId",
          "type": "uint256"
        }
      ],
      "name": "transferFrom",
      "outputs": [],
      "stateMutability": "nonpayable",
      "type": "function"
    },
    {
      "inputs": [
        {
          "internalType": "address",
          "name": "newOwner",
          "type": "address"
        }
      ],
      "name": "transferOwnership",
      "outputs": [],
      "stateMutability": "nonpayable",
      "type": "function"
    },
    {
      "inputs": [
        {
          "internalType": "address",
          "name": "to",
          "type": "address"
        },
        {
          "internalType": "string",
          "name": "uri",
          "type": "string"
        }
      ],
      "name": "mintKycNFT",
      "outputs": [
        {
          "internalType": "uint256",
          "name": "",
          "type": "uint256"
        }
      ],
      "stateMutability": "nonpayable",
      "type": "function"
    }
  ],
  "bytecode": "0x60806040523480156200001157600080fd5b50336040518060400160405280600681526020017f4b79634e465400000000000000000000000000000000000000000000000000008152506040518060400160405280600381526020017f4b59430000000000000000000000000000000000000000000000000000000000815250816000908162000090919062000472565b508060019081620000a2919062000472565b505050600073ffffffffffffffffffffffffffffffffffffffff168173ffffffffffffffffffffffffffffffffffffffff16036200011a5760006040517f1e4fbdf70000000000000000000000000000000000000000000000000000000081526004016200011191906200059e565b60405180910390fd5b6200012b816200013260201b60201c565b50620005bb565b6000600760009054906101000a900473ffffffffffffffffffffffffffffffffffffffff16905081600760006101000a81548173ffffffffffffffffffffffffffffffffffffffff021916908373ffffffffffffffffffffffffffffffffffffffff1602179055508173ffffffffffffffffffffffffffffffffffffffff168173ffffffffffffffffffffffffffffffffffffffff167f8be0079c531659141344cd1fd0a4f28419497f9722a3daafe3b4186f6b6457e060405160405180910390a35050565b600081519050919050565b7f4e487b7100000000000000000000000000000000000000000000000000000000600052604160045260246000fd5b7f4e487b7100000000000000000000000000000000000000000000000000000000600052602260045260246000fd5b600060028204905060018216806200027a57607f821691505b60208210810362000290576200028f62000232565b5b50919050565b60008190508160005260206000209050919050565b60006020601f8301049050919050565b600082821b905092915050565b600060088302620002fa7fffffffffffffffffffffffffffffffffffffffffffffffffffffffffffffffff82620002bb565b620003068683620002bb565b95508019841693508086168417925050509392505050565b6000819050919050565b6000819050919050565b6000620003536200034d62000347846200031e565b62000328565b6200031e565b9050919050565b6000819050919050565b6200036f8362000332565b620003876200037e826200035a565b848454620002c8565b825550505050565b600090565b6200039e6200038f565b620003ab81848462000364565b505050565b5b81811015620003d357620003c760008262000394565b600181019050620003b1565b5050565b601f8211156200042257620003ec8162000296565b620003f784620002ab565b8101602085101562000407578190505b6200041f6200041685620002ab565b830182620003b0565b50505b505050565b600082821c905092915050565b6000620004476000198460080262000427565b1980831691505092915050565b600062000462838362000434565b9150826002028217905092915050565b6200047d82620001f8565b67ffffffffffffffff81111562000499576200049862000203565b5b620004a5825462000261565b620004b2828285620003d7565b600060209050601f831160018114620004ea5760008415620004d5578287015190505b620004e1858262000454565b86555062000551565b601f198416620004fa8662000296565b60005b828110156200052457848901518255600182019150602085019450602081019050620004fd565b8683101562000544578489015162000540601f89168262000434565b8355505b6001600288020188555050505b505050505050565b600073ffffffffffffffffffffffffffffffffffffffff82169050919050565b6000620005868262000559565b9050919050565b620005988162000579565b82525050565b6000602082019050620005b560008301846200058d565b92915050565b61262480620005cb6000396000f3fe608060405234801561001057600080fd5b506004361061010b5760003560e01c806370a08231116100a2578063a22cb46511610071578063a22cb465146102b8578063b88d4fde146102d4578063c87b56dd146102f0578063e985e9c514610320578063f2fde38b146103505761010b565b806370a0823114610242578063715018a6146102725780638da5cb5b1461027c57806395d89b411461029a5761010b565b806323b872dd116100de57806323b872dd146101aa57806342842e0e146101c65780635aa14bd2146101e25780636352211e146102125761010b565b806301ffc9a71461011057806306fdde0314610140578063081812fc1461015e578063095ea7b31461018e575b600080fd5b61012a60048036038101906101259190611a90565b61036c565b6040516101379190611ad8565b60405180910390f35b6101486103cd565b6040516101559190611b83565b60405180910390f35b61017860048036038101906101739190611bdb565b61045f565b6040516101859190611c49565b60405180910390f35b6101a860048036038101906101a39190611c90565b61047b565b005b6101c460048036038101906101bf9190611cd0565b610491565b005b6101e060048036038101906101db9190611cd0565b610593565b005b6101fc60048036038101906101f79190611e58565b6105b3565b6040516102099190611ec3565b60405180910390f35b61022c60048036038101906102279190611bdb565b6105f3565b6040516102399190611c49565b60405180910390f35b61025c60048036038101906102579190611ede565b610605565b6040516102699190611ec3565b60405180910390f35b61027a6106bf565b005b6102846106d3565b6040516102919190611c49565b60405180910390f35b6102a26106fd565b6040516102af9190611b83565b60405180910390f35b6102d260048036038101906102cd9190611f37565b61078f565b005b6102ee60048036038101906102e99190612018565b6107a5565b005b61030a60048036038101906103059190611bdb565b6107c2565b6040516103179190611b83565b60405180910390f35b61033a6004803603810190610335919061209b565b6108d5565b6040516103479190611ad8565b60405180910390f35b61036a60048036038101906103659190611ede565b610969565b005b6000634906490660e01b7bffffffffffffffffffffffffffffffffffffffffffffffffffffffff1916827bffffffffffffffffffffffffffffffffffffffffffffffffffffffff191614806103c657506103c5826109ef565b5b9050919050565b6060600080546103dc9061210a565b80601f01602080910402602001604051908101604052809291908181526020018280546104089061210a565b80156104555780601f1061042a57610100808354040283529160200191610455565b820191906000526020600020905b81548152906001019060200180831161043857829003601f168201915b5050505050905090565b600061046a82610ad1565b5061047482610b59565b9050919050565b61048d8282610488610b96565b610b9e565b5050565b600073ffffffffffffffffffffffffffffffffffffffff168273ffffffffffffffffffffffffffffffffffffffff16036105035760006040517f64a0ae920000000000000000000000000000000000000000000000000000000081526004016104fa9190611c49565b60405180910390fd5b60006105178383610512610b96565b610bb0565b90508373ffffffffffffffffffffffffffffffffffffffff168173ffffffffffffffffffffffffffffffffffffffff161461058d578382826040517f64283d7b0000000000000000000000000000000000000000000000000000000081526004016105849392919061213b565b60405180910390fd5b50505050565b6105ae838383604051806020016040528060008152506107a5565b505050565b60008060085490506105c58482610dca565b6105cf8184610ec3565b6001600860008282546105e291906121a1565b925050819055508091505092915050565b60006105fe82610ad1565b9050919050565b60008073ffffffffffffffffffffffffffffffffffffffff168273ffffffffffffffffffffffffffffffffffffffff16036106785760006040517f89c62b6400000000000000000000000000000000000000000000000000000000815260040161066f9190611c49565b60405180910390fd5b600360008373ffffffffffffffffffffffffffffffffffffffff1673ffffffffffffffffffffffffffffffffffffffff168152602001908152602001600020549050919050565b6106c7610f1f565b6106d16000610fa6565b565b6000600760009054906101000a900473ffffffffffffffffffffffffffffffffffffffff16905090565b60606001805461070c9061210a565b80601f01602080910402602001604051908101604052809291908181526020018280546107389061210a565b80156107855780601f1061075a57610100808354040283529160200191610785565b820191906000526020600020905b81548152906001019060200180831161076857829003601f168201915b5050505050905090565b6107a161079a610b96565b838361106c565b5050565b6107b0848484610491565b6107bc848484846111db565b50505050565b60606107cd82610ad1565b5060006006600084815260200190815260200160002080546107ee9061210a565b80601f016020809104026020016040519081016040528092919081815260200182805461081a9061210a565b80156108675780601f1061083c57610100808354040283529160200191610867565b820191906000526020600020905b81548152906001019060200180831161084a57829003601f168201915b505050505090506000610878611392565b9050600081510361088d5781925050506108d0565b6000825111156108c25780826040516020016108aa929190612211565b604051602081830303815290604052925050506108d0565b6108cb846113a9565b925050505b919050565b6000600560008473ffffffffffffffffffffffffffffffffffffffff1673ffffffffffffffffffffffffffffffffffffffff16815260200190815260200160002060008373ffffffffffffffffffffffffffffffffffffffff1673ffffffffffffffffffffffffffffffffffffffff16815260200190815260200160002060009054906101000a900460ff16905092915050565b610971610f1f565b600073ffffffffffffffffffffffffffffffffffffffff168173ffffffffffffffffffffffffffffffffffffffff16036109e35760006040517f1e4fbdf70000000000000000000000000000000000000000000000000000000081526004016109da9190611c49565b60405180910390fd5b6109ec81610fa6565b50565b60007f80ac58cd000000000000000000000000000000000000000000000000000000007bffffffffffffffffffffffffffffffffffffffffffffffffffffffff1916827bffffffffffffffffffffffffffffffffffffffffffffffffffffffff19161480610aba57507f5b5e139f000000000000000000000000000000000000000000000000000000007bffffffffffffffffffffffffffffffffffffffffffffffffffffffff1916827bffffffffffffffffffffffffffffffffffffffffffffffffffffffff1916145b80610aca5750610ac982611412565b5b9050919050565b600080610add8361147c565b9050600073ffffffffffffffffffffffffffffffffffffffff168173ffffffffffffffffffffffffffffffffffffffff1603610b5057826040517f7e273289000000000000000000000000000000000000000000000000000000008152600401610b479190611ec3565b60405180910390fd5b80915050919050565b60006004600083815260200190815260200160002060009054906101000a900473ffffffffffffffffffffffffffffffffffffffff169050919050565b600033905090565b610bab83838360016114b9565b505050565b600080610bbc8461147c565b9050600073ffffffffffffffffffffffffffffffffffffffff168373ffffffffffffffffffffffffffffffffffffffff1614610bfe57610bfd81848661167e565b5b600073ffffffffffffffffffffffffffffffffffffffff168173ffffffffffffffffffffffffffffffffffffffff1614610c8f57610c406000856000806114b9565b6001600360008373ffffffffffffffffffffffffffffffffffffffff1673ffffffffffffffffffffffffffffffffffffffff168152602001908152602001600020600082825403925050819055505b600073ffffffffffffffffffffffffffffffffffffffff168573ffffffffffffffffffffffffffffffffffffffff1614610d12576001600360008773ffffffffffffffffffffffffffffffffffffffff1673ffffffffffffffffffffffffffffffffffffffff168152602001908152602001600020600082825401925050819055505b846002600086815260200190815260200160002060006101000a81548173ffffffffffffffffffffffffffffffffffffffff021916908373ffffffffffffffffffffffffffffffffffffffff160217905550838573ffffffffffffffffffffffffffffffffffffffff168273ffffffffffffffffffffffffffffffffffffffff167fddf252ad1be2c89b69c2b068fc378daa952ba7f163c4a11628f55a4df523b3ef60405160405180910390a4809150509392505050565b600073ffffffffffffffffffffffffffffffffffffffff168273ffffffffffffffffffffffffffffffffffffffff1603610e3c5760006040517f64a0ae92000000000000000000000000000000000000000000000000000000008152600401610e339190611c49565b60405180910390fd5b6000610e4a83836000610bb0565b9050600073ffffffffffffffffffffffffffffffffffffffff168173ffffffffffffffffffffffffffffffffffffffff1614610ebe5760006040517f73c6ac6e000000000000000000000000000000000000000000000000000000008152600401610eb59190611c49565b60405180910390fd5b505050565b80600660008481526020019081526020016000209081610ee391906123e1565b507ff8e1a15aba9398e019f0b49df1a4fde98ee17ae345cb5f6b5e2c27f5033e8ce782604051610f139190611ec3565b60405180910390a15050565b610f27610b96565b73ffffffffffffffffffffffffffffffffffffffff16610f456106d3565b73ffffffffffffffffffffffffffffffffffffffff1614610fa457610f68610b96565b6040517f118cdaa7000000000000000000000000000000000000000000000000000000008152600401610f9b9190611c49565b60405180910390fd5b565b6000600760009054906101000a900473ffffffffffffffffffffffffffffffffffffffff16905081600760006101000a81548173ffffffffffffffffffffffffffffffffffffffff021916908373ffffffffffffffffffffffffffffffffffffffff1602179055508173ffffffffffffffffffffffffffffffffffffffff168173ffffffffffffffffffffffffffffffffffffffff167f8be0079c531659141344cd1fd0a4f28419497f9722a3daafe3b4186f6b6457e060405160405180910390a35050565b600073ffffffffffffffffffffffffffffffffffffffff168273ffffffffffffffffffffffffffffffffffffffff16036110dd57816040517f5b08ba180000000000000000000000000000000000000000000000000000000081526004016110d49190611c49565b60405180910390fd5b80600560008573ffffffffffffffffffffffffffffffffffffffff1673ffffffffffffffffffffffffffffffffffffffff16815260200190815260200160002060008473ffffffffffffffffffffffffffffffffffffffff1673ffffffffffffffffffffffffffffffffffffffff16815260200190815260200160002060006101000a81548160ff0219169083151502179055508173ffffffffffffffffffffffffffffffffffffffff168373ffffffffffffffffffffffffffffffffffffffff167f17307eab39ab6107e8899845ad3d59bd9653f200f220920489ca2b5937696c31836040516111ce9190611ad8565b60405180910390a3505050565b60008373ffffffffffffffffffffffffffffffffffffffff163b111561138c578273ffffffffffffffffffffffffffffffffffffffff1663150b7a0261121f610b96565b8685856040518563ffffffff1660e01b81526004016112419493929190612508565b6020604051808303816000875af192505050801561127d57506040513d601f19601f8201168201806040525081019061127a9190612569565b60015b611301573d80600081146112ad576040519150601f19603f3d011682016040523d82523d6000602084013e6112b2565b606091505b5060008151036112f957836040517f64a0ae920000000000000000000000000000000000000000000000000000000081526004016112f09190611c49565b60405180910390fd5b805181602001fd5b63150b7a0260e01b7bffffffffffffffffffffffffffffffffffffffffffffffffffffffff1916817bffffffffffffffffffffffffffffffffffffffffffffffffffffffff19161461138a57836040517f64a0ae920000000000000000000000000000000000000000000000000000000081526004016113819190611c49565b60405180910390fd5b505b50505050565b606060405180602001604052806000815250905090565b60606113b482610ad1565b5060006113bf611392565b905060008151116113df576040518060200160405280600081525061140a565b806113e984611742565b6040516020016113fa929190612211565b6040516020818303038152906040525b915050919050565b60007f01ffc9a7000000000000000000000000000000000000000000000000000000007bffffffffffffffffffffffffffffffffffffffffffffffffffffffff1916827bffffffffffffffffffffffffffffffffffffffffffffffffffffffff1916149050919050565b60006002600083815260200190815260200160002060009054906101000a900473ffffffffffffffffffffffffffffffffffffffff169050919050565b80806114f25750600073ffffffffffffffffffffffffffffffffffffffff168273ffffffffffffffffffffffffffffffffffffffff1614155b1561162657600061150284610ad1565b9050600073ffffffffffffffffffffffffffffffffffffffff168373ffffffffffffffffffffffffffffffffffffffff161415801561156d57508273ffffffffffffffffffffffffffffffffffffffff168173ffffffffffffffffffffffffffffffffffffffff1614155b8015611580575061157e81846108d5565b155b156115c257826040517fa9fbf51f0000000000000000000000000000000000000000000000000000000081526004016115b99190611c49565b60405180910390fd5b811561162457838573ffffffffffffffffffffffffffffffffffffffff168273ffffffffffffffffffffffffffffffffffffffff167f8c5be1e5ebec7d5bd14f71427d1e84f3dd0314c0f7b2291e5b200ac8c7c3b92560405160405180910390a45b505b836004600085815260200190815260200160002060006101000a81548173ffffffffffffffffffffffffffffffffffffffff021916908373ffffffffffffffffffffffffffffffffffffffff16021790555050505050565b611689838383611810565b61173d57600073ffffffffffffffffffffffffffffffffffffffff168373ffffffffffffffffffffffffffffffffffffffff16036116fe57806040517f7e2732890000000000000000000000000000000000000000000000000000000081526004016116f59190611ec3565b60405180910390fd5b81816040517f177e802f000000000000000000000000000000000000000000000000000000008152600401611734929190612596565b60405180910390fd5b505050565b606060006001611751846118d1565b01905060008167ffffffffffffffff8111156117705761176f611d2d565b5b6040519080825280601f01601f1916602001820160405280156117a25781602001600182028036833780820191505090505b509050600082602001820190505b600115611805578080600190039150507f3031323334353637383961626364656600000000000000000000000000000000600a86061a8153600a85816117f9576117f86125bf565b5b049450600085036117b0575b819350505050919050565b60008073ffffffffffffffffffffffffffffffffffffffff168373ffffffffffffffffffffffffffffffffffffffff16141580156118c857508273ffffffffffffffffffffffffffffffffffffffff168473ffffffffffffffffffffffffffffffffffffffff161480611889575061188884846108d5565b5b806118c757508273ffffffffffffffffffffffffffffffffffffffff166118af83610b59565b73ffffffffffffffffffffffffffffffffffffffff16145b5b90509392505050565b600080600090507a184f03e93ff9f4daa797ed6e38ed64bf6a1f010000000000000000831061192f577a184f03e93ff9f4daa797ed6e38ed64bf6a1f0100000000000000008381611925576119246125bf565b5b0492506040810190505b6d04ee2d6d415b85acef8100000000831061196c576d04ee2d6d415b85acef81000000008381611962576119616125bf565b5b0492506020810190505b662386f26fc10000831061199b57662386f26fc100008381611991576119906125bf565b5b0492506010810190505b6305f5e10083106119c4576305f5e10083816119ba576119b96125bf565b5b0492506008810190505b61271083106119e95761271083816119df576119de6125bf565b5b0492506004810190505b60648310611a0c5760648381611a0257611a016125bf565b5b0492506002810190505b600a8310611a1b576001810190505b80915050919050565b6000604051905090565b600080fd5b600080fd5b60007fffffffff0000000000000000000000000000000000000000000000000000000082169050919050565b611a6d81611a38565b8114611a7857600080fd5b50565b600081359050611a8a81611a64565b92915050565b600060208284031215611aa657611aa5611a2e565b5b6000611ab484828501611a7b565b91505092915050565b60008115159050919050565b611ad281611abd565b82525050565b6000602082019050611aed6000830184611ac9565b92915050565b600081519050919050565b600082825260208201905092915050565b60005b83811015611b2d578082015181840152602081019050611b12565b60008484015250505050565b6000601f19601f8301169050919050565b6000611b5582611af3565b611b5f8185611afe565b9350611b6f818560208601611b0f565b611b7881611b39565b840191505092915050565b60006020820190508181036000830152611b9d8184611b4a565b905092915050565b6000819050919050565b611bb881611ba5565b8114611bc357600080fd5b50565b600081359050611bd581611baf565b92915050565b600060208284031215611bf157611bf0611a2e565b5b6000611bff84828501611bc6565b91505092915050565b600073ffffffffffffffffffffffffffffffffffffffff82169050919050565b6000611c3382611c08565b9050919050565b611c4381611c28565b82525050565b6000602082019050611c5e6000830184611c3a565b92915050565b611c6d81611c28565b8114611c7857600080fd5b50565b600081359050611c8a81611c64565b92915050565b60008060408385031215611ca757611ca6611a2e565b5b6000611cb585828601611c7b565b9250506020611cc685828601611bc6565b9150509250929050565b600080600060608486031215611ce957611ce8611a2e565b5b6000611cf786828701611c7b565b9350506020611d0886828701611c7b565b9250506040611d1986828701611bc6565b9150509250925092565b600080fd5b600080fd5b7f4e487b7100000000000000000000000000000000000000000000000000000000600052604160045260246000fd5b611d6582611b39565b810181811067ffffffffffffffff82111715611d8457611d83611d2d565b5b80604052505050565b6000611d97611a24565b9050611da38282611d5c565b919050565b600067ffffffffffffffff821115611dc357611dc2611d2d565b5b611dcc82611b39565b9050602081019050919050565b82818337600083830152505050565b6000611dfb611df684611da8565b611d8d565b905082815260208101848484011115611e1757611e16611d28565b5b611e22848285611dd9565b509392505050565b600082601f830112611e3f57611e3e611d23565b5b8135611e4f848260208601611de8565b91505092915050565b60008060408385031215611e6f57611e6e611a2e565b5b6000611e7d85828601611c7b565b925050602083013567ffffffffffffffff811115611e9e57611e9d611a33565b5b611eaa85828601611e2a565b9150509250929050565b611ebd81611ba5565b82525050565b6000602082019050611ed86000830184611eb4565b92915050565b600060208284031215611ef457611ef3611a2e565b5b6000611f0284828501611c7b565b91505092915050565b611f1481611abd565b8114611f1f57600080fd5b50565b600081359050611f3181611f0b565b92915050565b60008060408385031215611f4e57611f4d611a2e565b5b6000611f5c85828601611c7b565b9250506020611f6d85828601611f22565b9150509250929050565b600067ffffffffffffffff821115611f9257611f91611d2d565b5b611f9b82611b39565b9050602081019050919050565b6000611fbb611fb684611f77565b611d8d565b905082815260208101848484011115611fd757611fd6611d28565b5b611fe2848285611dd9565b509392505050565b600082601f830112611fff57611ffe611d23565b5b813561200f848260208601611fa8565b91505092915050565b6000806000806080858703121561203257612031611a2e565b5b600061204087828801611c7b565b945050602061205187828801611c7b565b935050604061206287828801611bc6565b925050606085013567ffffffffffffffff81111561208357612082611a33565b5b61208f87828801611fea565b91505092959194509250565b600080604083850312156120b2576120b1611a2e565b5b60006120c085828601611c7b565b92505060206120d185828601611c7b565b9150509250929050565b7f4e487b7100000000000000000000000000000000000000000000000000000000600052602260045260246000fd5b6000600282049050600182168061212257607f821691505b602082108103612135576121346120db565b5b50919050565b60006060820190506121506000830186611c3a565b61215d6020830185611eb4565b61216a6040830184611c3a565b949350505050565b7f4e487b7100000000000000000000000000000000000000000000000000000000600052601160045260246000fd5b60006121ac82611ba5565b91506121b783611ba5565b92508282019050808211156121cf576121ce612172565b5b92915050565b600081905092915050565b60006121eb82611af3565b6121f581856121d5565b9350612205818560208601611b0f565b80840191505092915050565b600061221d82856121e0565b915061222982846121e0565b91508190509392505050565b60008190508160005260206000209050919050565b60006020601f8301049050919050565b600082821b905092915050565b6000600883026122977fffffffffffffffffffffffffffffffffffffffffffffffffffffffffffffffff8261225a565b6122a1868361225a565b95508019841693508086168417925050509392505050565b6000819050919050565b60006122de6122d96122d484611ba5565b6122b9565b611ba5565b9050919050565b6000819050919050565b6122f8836122c3565b61230c612304826122e5565b848454612267565b825550505050565b600090565b612321612314565b61232c8184846122ef565b505050565b5b8181101561235057612345600082612319565b600181019050612332565b5050565b601f8211156123955761236681612235565b61236f8461224a565b8101602085101561237e578190505b61239261238a8561224a565b830182612331565b50505b505050565b600082821c905092915050565b60006123b86000198460080261239a565b1980831691505092915050565b60006123d183836123a7565b9150826002028217905092915050565b6123ea82611af3565b67ffffffffffffffff81111561240357612402611d2d565b5b61240d825461210a565b612418828285612354565b600060209050601f83116001811461244b5760008415612439578287015190505b61244385826123c5565b8655506124ab565b601f19841661245986612235565b60005b828110156124815784890151825560018201915060208501945060208101905061245c565b8683101561249e578489015161249a601f8916826123a7565b8355505b6001600288020188555050505b505050505050565b600081519050919050565b600082825260208201905092915050565b60006124da826124b3565b6124e481856124be565b93506124f4818560208601611b0f565b6124fd81611b39565b840191505092915050565b600060808201905061251d6000830187611c3a565b61252a6020830186611c3a565b6125376040830185611eb4565b818103606083015261254981846124cf565b905095945050505050565b60008151905061256381611a64565b92915050565b60006020828403121561257f5761257e611a2e565b5b600061258d84828501612554565b91505092915050565b60006040820190506125ab6000830185611c3a565b6125b86020830184611eb4565b9392505050565b7f4e487b7100000000000000000000000000000000000000000000000000000000600052601260045260246000fdfea264697066735822122080cf81bcb1c43bdc00d62f0430980324debfdc1b4b4a0411a02294f9165a7fe064736f6c63430008140033",
  "immutableReferences": {},
  "source": "// SPDX-License-Identifier: MIT\r\npragma solidity ^0.8.20;\r\n\r\nimport \"@openzeppelin/contracts/token/ERC721/extensions/ERC721URIStorage.sol\";\r\nimport \"@openzeppelin/contracts/access/Ownable.sol\";\r\n\r\ncontract KycNFT is ERC721URIStorage, Ownable {\r\n    uint256 private _tokenIdCounter;\r\n\r\n    constructor() ERC721(\"KycNFT\", \"KYC\") Ownable(msg.sender) {}\r\n\r\n   function mintKycNFT(address to, string memory uri) public returns (uint256) {\r\n       uint256 tokenId = _tokenIdCounter;\r\n       _mint(to, tokenId);\r\n       _setTokenURI(tokenId, uri);\r\n       _tokenIdCounter += 1; // Increment the counter\r\n       return tokenId;\r\n   }\r\n}",
  "sourcePath": "C:\\Users\\HP\\OneDrive\\Desktop\\KYC-blockchainn\\contracts\\KycNFT.sol",
  "compiler": {
    "name": "solc",
    "version": "0.8.20+commit.a1b79de6.Emscripten.clang"
  },
  "schemaVersion": "3.4.16",
  "updatedAt": "2024-06-14T12:15:24.768Z",
  "networkType": "ethereum",
  "devdoc": {
    "errors": {
      "ERC721IncorrectOwner(address,uint256,address)": [
        {
          "details": "Indicates an error related to the ownership over a particular token. Used in transfers.",
          "params": {
            "owner": "Address of the current owner of a token.",
            "sender": "Address whose tokens are being transferred.",
            "tokenId": "Identifier number of a token."
          }
        }
      ],
      "ERC721InsufficientApproval(address,uint256)": [
        {
          "details": "Indicates a failure with the `operator`s approval. Used in transfers.",
          "params": {
            "operator": "Address that may be allowed to operate on tokens without being their owner.",
            "tokenId": "Identifier number of a token."
          }
        }
      ],
      "ERC721InvalidApprover(address)": [
        {
          "details": "Indicates a failure with the `approver` of a token to be approved. Used in approvals.",
          "params": {
            "approver": "Address initiating an approval operation."
          }
        }
      ],
      "ERC721InvalidOperator(address)": [
        {
          "details": "Indicates a failure with the `operator` to be approved. Used in approvals.",
          "params": {
            "operator": "Address that may be allowed to operate on tokens without being their owner."
          }
        }
      ],
      "ERC721InvalidOwner(address)": [
        {
          "details": "Indicates that an address can't be an owner. For example, `address(0)` is a forbidden owner in EIP-20. Used in balance queries.",
          "params": {
            "owner": "Address of the current owner of a token."
          }
        }
      ],
      "ERC721InvalidReceiver(address)": [
        {
          "details": "Indicates a failure with the token `receiver`. Used in transfers.",
          "params": {
            "receiver": "Address to which tokens are being transferred."
          }
        }
      ],
      "ERC721InvalidSender(address)": [
        {
          "details": "Indicates a failure with the token `sender`. Used in transfers.",
          "params": {
            "sender": "Address whose tokens are being transferred."
          }
        }
      ],
      "ERC721NonexistentToken(uint256)": [
        {
          "details": "Indicates a `tokenId` whose `owner` is the zero address.",
          "params": {
            "tokenId": "Identifier number of a token."
          }
        }
      ],
      "OwnableInvalidOwner(address)": [
        {
          "details": "The owner is not a valid owner account. (eg. `address(0)`)"
        }
      ],
      "OwnableUnauthorizedAccount(address)": [
        {
          "details": "The caller account is not authorized to perform an operation."
        }
      ]
    },
    "events": {
      "Approval(address,address,uint256)": {
        "details": "Emitted when `owner` enables `approved` to manage the `tokenId` token."
      },
      "ApprovalForAll(address,address,bool)": {
        "details": "Emitted when `owner` enables or disables (`approved`) `operator` to manage all of its assets."
      },
      "BatchMetadataUpdate(uint256,uint256)": {
        "details": "This event emits when the metadata of a range of tokens is changed. So that the third-party platforms such as NFT market could timely update the images and related attributes of the NFTs."
      },
      "MetadataUpdate(uint256)": {
        "details": "This event emits when the metadata of a token is changed. So that the third-party platforms such as NFT market could timely update the images and related attributes of the NFT."
      },
      "Transfer(address,address,uint256)": {
        "details": "Emitted when `tokenId` token is transferred from `from` to `to`."
      }
    },
    "kind": "dev",
    "methods": {
      "approve(address,uint256)": {
        "details": "See {IERC721-approve}."
      },
      "balanceOf(address)": {
        "details": "See {IERC721-balanceOf}."
      },
      "getApproved(uint256)": {
        "details": "See {IERC721-getApproved}."
      },
      "isApprovedForAll(address,address)": {
        "details": "See {IERC721-isApprovedForAll}."
      },
      "name()": {
        "details": "See {IERC721Metadata-name}."
      },
      "owner()": {
        "details": "Returns the address of the current owner."
      },
      "ownerOf(uint256)": {
        "details": "See {IERC721-ownerOf}."
      },
      "renounceOwnership()": {
        "details": "Leaves the contract without owner. It will not be possible to call `onlyOwner` functions. Can only be called by the current owner. NOTE: Renouncing ownership will leave the contract without an owner, thereby disabling any functionality that is only available to the owner."
      },
      "safeTransferFrom(address,address,uint256)": {
        "details": "See {IERC721-safeTransferFrom}."
      },
      "safeTransferFrom(address,address,uint256,bytes)": {
        "details": "See {IERC721-safeTransferFrom}."
      },
      "setApprovalForAll(address,bool)": {
        "details": "See {IERC721-setApprovalForAll}."
      },
      "supportsInterface(bytes4)": {
        "details": "See {IERC165-supportsInterface}"
      },
      "symbol()": {
        "details": "See {IERC721Metadata-symbol}."
      },
      "tokenURI(uint256)": {
        "details": "See {IERC721Metadata-tokenURI}."
      },
      "transferFrom(address,address,uint256)": {
        "details": "See {IERC721-transferFrom}."
      },
      "transferOwnership(address)": {
        "details": "Transfers ownership of the contract to a new account (`newOwner`). Can only be called by the current owner."
      }
    },
    "version": 1
  },
  "userdoc": {
    "kind": "user",
    "methods": {},
    "version": 1
  }
}